:1000CD008B0A8A0B890C8C0D8D0EC3E50D64809403
:1000DD0080500FC3E4950EF50EE4950DF50D742DBE
:1000ED008008AB0AAA0BA90C7420120030AE0DAF1C
:1000FD000E7C007D64120042EF2430FFAB0A050C2C
:10010D00E50C7002050BF9AA0BEF120030AE0DAF26
:10011D000E7C007D641200428C0D8D0EAE0DAF0E67
:10012D007C007D0A120042EF2430FFAB0A050CE57E
:10013D000C7002050BF9AA0BEF120030AE0DAF0ECD
:10014D007C007D0A1200428C0D8D0EE50E2430FFD1
:10015D00AB0A050CE50C7002050BF9AA0BEF0200BA
:01016D003061
:04028B007FF47E017D
:10028F00E4FDFCC3ED9FEC9E5015E4FBFA0BBB00A5
:0F029F00010AEB64794A70F50DBD00010C80E493
:0102AE00222D
:10020C007D017F381203877D017F0C1203877D01EE
:10021C007F061203877D017F011203877B41E4FD7A
:0D022C00FF1203387B477D01E4FF02033819
:10039C007580FFC2A6D2A500D2A70000E58020E799
:0403AC00FBC2A722C7
:10038700ED600312039CC2A6C2A5008F8000D2A70E
:050397000000C2A722D6
:1003B00012039CD2A6C2A5008F8000D2A70000C263
:0203C000A72272
:10033800AE07AC0353050153060FED6003430640B7
:0F034800430680AF06E4FD120387AF040203B043
:0A01CE008F0A8D0B8B0C8A0D890E31
:1001D800E4F511530B01530A0FE5101510AE0F701B
:1001E80002150F4E601DAB0CAA0DA90E8511827564
:1001F8008300120003FBAD0BAF0A1203380511058B
:030208000A80D693
:01020B0022D0
:100357000000000000000000000000000000000096
:090367000000000000000000226B
:0F03C200D291D290120357C291120357C29022C8
:0C03DF00C291D290120357D29102035732
:0E03D100A2009291D290120357C290020357DD
:0C03EB00D290120357A291C29002035757
:1002D200E4FEEEC39408748094805013EF25E0FF8F
:1002E2009291D290120357C2901203570E80E302EA
:0202F20003EB1C
:10026400E4FFD291FEEEC39408748094805017EF9B
:1002740025E0FFD290120357A291E4334207C290C3
:060284001203570E80DF9B
:01028A002251
:10037000AC071203C27FD01202D2AF041202D2AF76
:07038000051202D20203DFA7
:0202F400AD0754
:1002F6001203C27FD01202D2AF051202D21203C27B
:100306007FD11202D2120264D2001203D10203DF9D
:10031600E4FD7F6B1203707D077F191203701D7F4A
:100326001A1203707D187F1B1203707D017F1C0259
:02033600037052
:0202AF00AC079A
:1002B1001202F4AB07EC04FF1202F4AD07AF03EF37
:1002C1003395E0EFFEED3395E0FCE42DFFEE3CFECF
:0102D100220A
:100239008D088B097C007D401200427B007A007991
:1002490014AD07AC061200CD7B007A007914750F46
:0B02590000751004AD09AF080201CED3
:10016E0012028B12020C12028B1203167F967E0065
:10017E0012028F7F3B1202AFE4FB7D021202397F27
:10018E003D1202AFE4FB7D071202397F3F1202AF30
:10019E00E4FB7D0C1202397F431202AF7B017D021C
:1001AE001202397F451202AF7B017D071202397FA1
:1001BE00471202AF7B017D0C12023912028B80B303
:030000000203F701
:0C03F700787FE4F6D8FD75812002016ECD
:10000300BB010CE58229F582E5833AF583E02250B2
:1000130006E92582F8E622BBFE06E92582F8E222FC
:0D002300E58229F582E5833AF583E4932216
:10003000BB010689828A83F0225002F722BBFE01AF
:02004000F322A9
:10004200C2D5EC30E709B2D5E4C39DFDE49CFCEED9
:1000520030E715B2D5E4C39FFFE49EFE120078C3D9
:10006200E49DFDE49CFC800312007830D507C3E4D4
:060072009FFFE49EFE2248
:10007800BC000BBE0029EF8DF084FFADF022E4CC6C
:10008800F875F008EF2FFFEE33FEEC33FCEE9DEC35
:10009800984005FCEE9DFE0FD5F0E9E4CEFD22ED7B
:1000A800F8F5F0EE8420D21CFEADF075F008EF2FC5
:1000B800FFED33FD4007985006D5F0F222C398FDB6
:0500C8000FD5F0EA2253
:00000001FF
